:020000040800F2
:1000000000280020DD05000881050008870500089C
:100010008D05000893050008990500080000000000
:100020000000000000000000000000009F05000824
:10003000AB05000800000000B7050008C305000874
:1000400025060008250600082506000825060008E4
:1000500025060008250600082506000825060008D4
:1000600025060008250600082506000825060008C4
:1000700025060008250600082506000825060008B4
:1000800025060008250600082506000825060008A4
:100090002506000825060008250600082506000894
:1000A0002506000825060008250600082506000884
:1000B00025060008250600080000000025060008A7
:1000C00025060008000000000000000025060008CA
:1000D00000000000250600082506000800000000BA
:1000E0002506000825060008250600080000000077
:1000F0000000000000000000000000000000000000
:0C01000000000000000000005FF808F1A3
:10010C0010B5054C237833B9044B13B10448AFF345
:10011C0000800123237010BD180000200000000097
:10012C003814000808B5034B1BB103490348AFF35F
:10013C00008008BD000000001C00002038140008DE
:10014C0080B582B000AF7860314A7B6813441B786D
:10015C0003F00103DBB21A4601212E4800F044FDE6
:10016C002B4A7B6813441B785B10DBB203F0010352
:10017C00DBB21A460221274800F036FD244A7B6880
:10018C0013441B789B10DBB203F00103DBB21A465D
:10019C000421204800F028FD1D4A7B6813441B787D
:1001AC00DB10DBB203F00103DBB21A46082119485D
:1001BC0000F01AFD164A7B6813441B781B11DBB246
:1001CC0003F00103DBB21A461021124800F00CFDBB
:1001DC000F4A7B6813441B785B11DBB203F00103FD
:1001EC00DBB21A4620210B4800F0FEFC084A7B6863
:1001FC0013441B789B11DBB203F00103DBB21A46EC
:10020C004021044800F0F0FC00BF0837BD4680BD1B
:10021C0000000020000C014080B582B000AF786077
:10022C00C7F800C07B68134A934214BF0123002314
:10023C00DBB21A462021104800F0D6FC7B680F4A2E
:10024C00934214BF01230023DBB21A4640210A4813
:10025C0000F0CAFC7B680A4A934214BF01230023B6
:10026C00DBB21A468021044800F0BEFC00BF083700
:10027C00BD4680BD5014000800080140541400080D
:10028C005C14000880B584B000AF07F118033B6024
:10029C0000F0C4F900F0B8F800F0F2F80023FB60AD
:1002AC004FF49673BB6000237B607B68092B01DDE8
:1002BC0000237B607868FFF743FFFB68032B5CD857
:1002CC0001A252F823F000BFE50200080903000860
:1002DC002F030008530300083B469C462C48FFF7AD
:1002EC009BFF3B469C462B4800F058F8BB68002B04
:1002FC003CDC0123FB60C823BB6037E03B469C46DB
:10030C002348FFF789FF3B469C46234800F046F8FC
:10031C00BB68002B2CDC0223FB604FF49673BB6094
:10032C0026E03B469C461B48FFF776FF3B469C4627
:10033C00174800F033F8BB68002B1BDC0323FB6071
:10034C00C823BB6016E03B469C461348FFF764FF8E
:10035C003B469C460E4800F021F8BB68002B0BDC9A
:10036C000023FB604FF49673BB6005E000BF04E014
:10037C0000BF02E000BF00E000BF7B6801337B6080
:10038C00BB68013BBB600A2000F0AAF98DE700BFF7
:10039C00501400085C1400085414000880B582B096
:1003AC0000AF7860C7F800C07B68134A934214BF53
:1003BC0001230023DBB21A460421104800F014FC80
:1003CC007B680F4A934214BF01230023DBB21A4609
:1003DC0008210A4800F008FC7B680A4A934214BFC3
:1003EC0001230023DBB21A461021044800F0FCFB69
:1003FC0000BF0837BD4680BD5014000800080140FE
:10040C00541400085C14000880B590B000AF07F1DC
:10041C00180328220021184600F0DCFF3B1D0022A7
:10042C001A605A609A60DA601A610223BB61012378
:10043C00BB621023FB6200237B6307F11803184691
:10044C0000F0EAFB0346002B01D000F06BF80F2301
:10045C007B600023BB600023FB6000233B61002317
:10046C007B613B1D0021184600F058FE0346002B13
:10047C0001D000F057F800BF4037BD4680BD0000EA
:10048C0080B586B000AF07F1080300221A605A60ED
:10049C009A60DA60204B9B691F4A43F00403936116
:1004AC001D4B9B6903F004037B607B681A4B9B69B3
:1004BC00194A43F008039361174B9B6903F0080337
:1004CC003B603B680022FC21144800F08DFB0022AD
:1004DC007F21134800F088FBFC23BB600123FB60E9
:1004EC0000233B6102237B6107F1080319460B488B
:1004FC0000F0FEF97F23BB600123FB6000233B610E
:10050C0002237B6107F108031946054800F0F0F956
:10051C0000BF1837BD4680BD0010024000080140E6
:10052C00000C014080B400AF72B600BFFEE70000C3
:10053C0080B483B000AF0E4B9B690D4A43F00103AE
:10054C0093610B4B9B6903F001037B607B68084B49
:10055C00DB69074A43F08053D361054BDB6903F039
:10056C0080533B603B6800BF0C37BD4680BC704776
:10057C000010024080B400AFFEE780B400AFFEE78D
:10058C0080B400AFFEE780B400AFFEE780B400AFEC
:10059C00FEE780B400AF00BFBD4680BC704780B49E
:1005AC0000AF00BFBD4680BC704780B400AF00BF39
:1005BC00BD4680BC704780B500AF00F075F800BF39
:1005CC0080BD80B400AF00BFBD4680BC704700004A
:1005DC00FFF7F7FF0B480C490C4A002302E0D458F4
:1005EC00C4500433C4188C42F9D3094A094C002373
:1005FC0001E013600432A242FBD300F0F3FEFFF7DC
:10060C0041FE7047000000201800002090140008E4
:10061C001800002038000020FEE7000080B500AF75
:10062C00084B1B68074A43F010031360032000F0CB
:10063C002BF90F2000F008F8FFF77AFF002318467B
:10064C0080BD00BF0020024080B582B000AF786052
:10065C00124B1A68124B1B7819464FF47A73B3FB82
:10066C00F1F3B2FBF3F3184600F035F90346002B17
:10067C0001D001230EE07B680F2B0AD80022796889
:10068C004FF0FF3000F00BF9064A7B681360002333
:10069C0000E0012318460837BD4680BD0C00002041
:1006AC00140000201000002080B400AF054B1B7814
:1006BC001A46054B1B681344034A136000BFBD4622
:1006CC0080BC7047140000203400002080B400AFC0
:1006DC00024B1B681846BD4680BC70473400002096
:1006EC0080B584B000AF7860FFF7F0FFB8607B682E
:1006FC00FB60FB68B3F1FF3F05D00A4B1B781A4631
:10070C00FB681344FB6000BFFFF7E0FF0246BB68C9
:10071C00D31AFA689A42F7D800BF00BF1037BD460B
:10072C0080BD00BF1400002080B485B000AF78609D
:10073C007B6803F00703FB600C4BDB68BB60BA689B
:10074C004FF6FF031340BB60FB681A02BB681343F0
:10075C0043F0BF6343F40033BB60044ABB68D3600F
:10076C0000BF1437BD4680BC704700BF00ED00E0F1
:10077C0080B400AF044BDB681B0A03F00703184678
:10078C00BD4680BC704700BF00ED00E080B483B074
:10079C0000AF03463960FB7197F90730002B0ADB79
:1007AC003B68DAB20C4997F907301201D2B20B440C
:1007BC0083F800230AE03B68DAB20849FB7903F0BE
:1007CC000F03043B1201D2B20B441A7600BF0C3754
:1007DC00BD4680BC704700BF00E100E000ED00E0CA
:1007EC0080B489B000AFF860B9607A60FB6803F040
:1007FC000703FB61FB69C3F10703042B28BF042328
:10080C00BB61FB690433062B02D9FB69033B00E097
:10081C0000237B614FF0FF32BB6902FA03F3DA432A
:10082C00BB681A407B699A404FF0FF317B6901FA33
:10083C0003F3D9437B680B40134318462437BD465A
:10084C0080BC704780B582B000AF78607B68013B9C
:10085C00B3F1807F01D301230FE00A4A7B68013B8F
:10086C0053600F214FF0FF30FFF790FF054B002234
:10087C009A60044B07221A60002318460837BD46BD
:10088C0080BD00BF10E000E080B582B000AF7860A2
:10089C007868FFF749FF00BF0837BD4680BD80B5BB
:1008AC0086B000AF0346B9607A60FB7300237B61AE
:1008BC00FFF75EFF78617A68B9687869FFF790FF97
:1008CC00024697F90F3011461846FFF75FFF00BF3D
:1008DC001837BD4680BD80B582B000AF78607868AF
:1008EC00FFF7B0FF034618460837BD4680BD000031
:1008FC0080B48BB000AF7860396000237B6200233A
:10090C003B6261E101227B6A02FA03F3FB613B6803
:10091C001B68FA691340BB61BA69FB699A4240F0E3
:10092C0050813B685B68974A93425ED0954A9342EC
:10093C0075D8954A934258D0934A93426FD8934AAC
:10094C00934252D0914A934269D8914A93424CD0E7
:10095C008F4A934263D88F4A934246D08D4A934232
:10096C005DD8122B2AD8122B59D801A252F823F099
:10097C00F7090008D1090008E3090008250A000856
:10098C002B0A00082B0A00082B0A00082B0A000867
:10099C002B0A00082B0A00082B0A00082B0A000857
:1009AC002B0A00082B0A00082B0A00082B0A000847
:1009BC002B0A0008D9090008ED090008764A934271
:1009CC0013D02CE03B68DB683B6229E03B68DB68BA
:1009DC0004333B6224E03B68DB6808333B621FE076
:1009EC003B68DB680C333B621AE03B689B68002B6E
:1009FC0002D104233B6213E03B689B68012B05D1B9
:100A0C0008233B627B68FA691A6109E008233B62A0
:100A1C007B68FA695A6103E000233B6200E000BF87
:100A2C00BB69FF2B01D87B6801E07B6804337B61D9
:100A3C00BB69FF2B02D87B6A9B0002E07B6A083BF8
:100A4C009B003B617B691A680F213B6901FA03F338
:100A5C00DB431A40396A3B6901FA03F31A437B6999
:100A6C001A603B685B6803F08053002B00F0A98090
:100A7C004A4B9B69494A43F001039361474B9B697D
:100A8C0003F00103BB60BB68454A7B6A9B080233D9
:100A9C0052F82330FB607B6A03F003039B000F22A8
:100AAC0002FA03F3DB43FA681340FB607B683D4AB0
:100ABC0093420DD07B683C4A934207D07B683B4AFB
:100ACC00934201D1022304E0032302E0012300E05E
:100ADC0000237A6A02F0030292009340FA681343EF
:100AEC00FB602F497B6A9B080233FA6841F823208C
:100AFC003B685B6803F48013002B06D02C4B9A6880
:100B0C002B49BB6913438B6006E0294B9A68BB6980
:100B1C00DB43274913408B603B685B6803F400138D
:100B2C00002B06D0224BDA682149BB691343CB60FA
:100B3C0006E01F4BDA68BB69DB431D491340CB60F1
:100B4C003B685B6803F40033002B06D0184B5A68E3
:100B5C001749BB6913434B6006E0154B5A68BB69D8
:100B6C00DB43134913404B603B685B6803F48033F1
:100B7C00002B1FD00E4B1A680D49BB6913430B6039
:100B8C001FE000BF000032100000311000002210E6
:100B9C000000211000001210000011100010024083
:100BAC000000014000080140000C01400010014011
:100BBC00000401400B4B1A68BB69DB430949134025
:100BCC000B607B6A01337B623B681A687B6A22FA92
:100BDC0003F3002B7FF496AE00BF00BF2C37BD464D
:100BEC0080BC70470004014080B483B000AF7860D3
:100BFC000B467B8013467B707B78002B03D07A8866
:100C0C007B681A6103E07B881A047B681A6100BF59
:100C1C000C37BD4680BC704780B586B000AF78609D
:100C2C007B68002B01D1012372E27B681B6803F007
:100C3C000103002B00F08780924B5B6803F00C03E0
:100C4C00042B0CD08F4B5B6803F00C03082B12D1D8
:100C5C008C4B5B6803F48033B3F5803F0BD1894B2D
:100C6C001B6803F40033002B6CD07B685B68002B93
:100C7C0068D101234CE27B685B68B3F5803F06D1F9
:100C8C00804B1B687F4A43F4803313602EE07B68F3
:100C9C005B68002B0CD17B4B1B687A4A23F48033A6
:100CAC001360784B1B68774A23F4802313601DE094
:100CBC007B685B68B3F5A02F0CD1724B1B68714A33
:100CCC0043F4802313606F4B1B686E4A43F48033EC
:100CDC0013600BE06B4B1B686A4A23F48033136080
:100CEC00684B1B68674A23F4802313607B685B683E
:100CFC00002B13D0FFF7EAFC386108E0FFF7E6FCA5
:100D0C0002463B69D31A642B01D9032300E25D4BE5
:100D1C001B6803F40033002BF0D014E0FFF7D6FC73
:100D2C00386108E0FFF7D2FC02463B69D31A642B0A
:100D3C0001D90323ECE1534B1B6803F40033002B64
:100D4C00F0D100E000BF7B681B6803F00203002BAE
:100D5C0063D04C4B5B6803F00C03002B0BD0494B5E
:100D6C005B6803F00C03082B1CD1464B5B6803F447
:100D7C008033002B16D1434B1B6803F00203002B6E
:100D8C0005D07B681B69012B01D00123C0E13D4BD1
:100D9C001B6823F0F8027B685B69DB00394913435D
:100DAC000B603AE07B681B69002B20D0364B01228C
:100DBC001A60FFF78BFC386108E0FFF787FC0246EE
:100DCC003B69D31A022B01D90323A1E12D4B1B68DC
:100DDC0003F00203002BF0D02A4B1B6823F0F8021F
:100DEC007B685B69DB00274913430B6015E0264BDE
:100DFC0000221A60FFF76AFC386108E0FFF766FC16
:100E0C0002463B69D31A022B01D9032380E11D4B07
:100E1C001B6803F00203002BF0D17B681B6803F006
:100E2C000803002B3AD07B689B69002B19D0174B19
:100E3C0001221A60FFF74AFC386108E0FFF746FC14
:100E4C0002463B69D31A022B01D9032360E10D4BF7
:100E5C005B6A03F00203002BF0D0012000F09CFA37
:100E6C001CE00A4B00221A60FFF730FC38610FE0DF
:100E7C00FFF72CFC02463B69D31A022B08D903233B
:100E8C0046E100BF00100240000042428004424292
:100E9C00924B5B6A03F00203002BE9D17B681B6861
:100EAC0003F00403002B00F0A6800023FB758B4B92
:100EBC00DB6903F08053002B0DD1884BDB69874A2B
:100ECC0043F08053D361854BDB6903F08053BB60E7
:100EDC00BB680123FB75824B1B6803F48073002BEA
:100EEC0018D17F4B1B687E4A43F480731360FFF765
:100EFC00EDFB386108E0FFF7E9FB02463B69D31ACA
:100F0C00642B01D9032303E1754B1B6803F4807335
:100F1C00002BF0D07B68DB68012B06D16F4B1B6A72
:100F2C006E4A43F0010313622DE07B68DB68002BF3
:100F3C000CD16A4B1B6A694A23F001031362674B9D
:100F4C001B6A664A23F0040313621CE07B68DB68AF
:100F5C00052B0CD1614B1B6A604A43F004031362EE
:100F6C005E4B1B6A5D4A43F0010313620BE05B4B63
:100F7C001B6A5A4A23F001031362584B1B6A574AE7
:100F8C0023F0040313627B68DB68002B15D0FFF79A
:100F9C009DFB38610AE0FFF799FB02463B69D31AC7
:100FAC0041F28832934201D90323B1E04B4B1B6AC7
:100FBC0003F00203002BEED014E0FFF787FB38613F
:100FCC000AE0FFF783FB02463B69D31A41F28832F1
:100FDC00934201D903239BE0404B1B6A03F00203AD
:100FEC00002BEED1FB7D012B05D13C4BDB693B4A41
:100FFC0023F08053D3617B68DB69002B00F0878082
:10100C00364B5B6803F00C03082B61D07B68DB6903
:10101C00022B46D1334B00221A60FFF757FB386185
:10102C0008E0FFF753FB02463B69D31A022B01D9A8
:10103C0003236DE0294B1B6803F00073002BF0D1E8
:10104C007B681B6AB3F5803F08D1244B5B6823F4A3
:10105C0000327B689B68214913434B601F4B5B68D4
:10106C0023F474127B68196A7B685B6A0B431B4917
:10107C0013434B601B4B01221A60FFF727FB3861AF
:10108C0008E0FFF723FB02463B69D31A022B01D978
:10109C0003233DE0114B1B6803F00073002BF0D0D1
:1010AC0035E0104B00221A60FFF710FB386108E0A6
:1010BC00FFF70CFB02463B69D31A022B01D9032321
:1010CC0026E0064B1B6803F00073002BF0D11EE0EA
:1010DC007B68DB69012B07D1012319E0001002406A
:1010EC0000700040600042420B4B5B68FB60FB6889
:1010FC0003F480327B681B6A9A4206D1FB6803F4C6
:10110C0070127B685B6A9A4201D0012300E00023D5
:10111C0018461837BD4680BD0010024080B584B01B
:10112C0000AF786039607B68002B01D10123D0E0DF
:10113C006A4B1B6803F007033A689A4210D9674B55
:10114C001B6823F0070265493B6813430B60634B34
:10115C001B6803F007033A689A4201D00123B8E0F8
:10116C007B681B6803F00203002B20D07B681B6894
:10117C0003F00403002B05D0594B5B68584A43F429
:10118C00E06353607B681B6803F00803002B05D0F9
:10119C00534B5B68524A43F460535360504B5B684B
:1011AC0023F0F0027B689B684D4913434B607B68CE
:1011BC001B6803F00103002B40D07B685B68012B9C
:1011CC0007D1474B1B6803F40033002B15D10123C7
:1011DC007FE07B685B68022B07D1414B1B6803F0F7
:1011EC000073002B09D1012373E03D4B1B6803F006
:1011FC000203002B01D101236BE0394B5B6823F018
:10120C0003027B685B68364913434B60FFF75EFA59
:10121C00F8600AE0FFF75AFA0246FB68D31A41F26B
:10122C008832934201D9032353E02D4B5B6803F0C2
:10123C000C027B685B689B009A42EBD1274B1B68C6
:10124C0003F007033A689A4210D2244B1B6823F030
:10125C00070222493B6813430B60204B1B6803F0C9
:10126C0007033A689A4201D0012332E07B681B687D
:10127C0003F00403002B08D0194B5B6823F4E062E5
:10128C007B68DB68164913434B607B681B6803F073
:10129C000803002B09D0124B5B6823F460527B6867
:1012AC001B69DB000E4913434B6000F021F802462A
:1012BC000B4B5B681B0903F00F030A49CB5C22FA4A
:1012CC0003F3094A1360094B1B681846FFF7BCF976
:1012DC00002318461037BD4680BD00BF00200240D9
:1012EC0000100240641400080C00002010000020C4
:1012FC0080B487B000AF0023FB600023BB600023E9
:10130C007B6100237B6000233B611E4B5B68FB60B1
:10131C00FB6803F00C03042B02D0082B03D027E04E
:10132C00194B3B6127E0FB689B0C03F00F03174A3A
:10133C00D35C7B60FB6803F48033002B10D0114B23
:10134C005B685B0C03F00103114AD35CBB607B68E8
:10135C000D4A03FB02F2BB68B2FBF3F37B6104E0C2
:10136C007B680C4A02FB03F37B617B693B6102E007
:10137C00054B3B6100BF3B6918461C37BD4680BC22
:10138C00704700BF0010024000127A00741400086D
:10139C008414000800093D0080B485B000AF78606B
:1013AC000A4B1B680A4AA2FB03235B0A7A6802FBFE
:1013BC0003F3FB6000BFFB685A1EFA60002BF9D1E7
:1013CC0000BF00BF1437BD4680BC70470C00002026
:1013DC00D34D621003460244934200D1704703F888
:1013EC00011BF9E770B500260C4D0D4C641BA410C5
:1013FC00A64209D100F01AF800260A4D0A4C641BCB
:10140C00A410A64205D170BD55F8043B984701368F
:10141C00EEE755F8043B98470136F2E788140008CC
:10142C0088140008881400088C140008F8B500BF54
:10143C00F8BC08BC9E467047F8B500BFF8BC08BCA9
:04144C009E46704701
:101450005245440059454C4C4F57000047524545B2
:101460004E00000000000000000000000102030424
:101470000607080902030405060708090A0B0C0DF4
:081480000E0F10100102000024
:041488003101000826
:04148C000D01000846
:10149000C0F9A4B0999282F8809080000024F400F2
:0814A000100000000100000033
:04000005080005DD0D
:00000001FF
